:100000000C9462000C947F000C947F000C947F0091
:100010000C947F000C947F000C947F000C947F0064
:100020000C947F000C947F000C947F000C947F0054
:100030000C947F000C947F000C947F000C947F0044
:100040000C947F000C947F000C9494000C94BE00E0
:100050000C947F000C947F000C947F000C947F0024
:100060000C947F000C947F006364696E6F707375ED
:1000700078585B00496E70757420646174653A202D
:1000800025752F25752F25752025753A25753A2557
:10009000750A00456E746572206461746520696E2E
:1000A000207468697320666F726D61743A204444ED
:1000B0002F4D4D2F595959592048483A4D4D3A53D3
:1000C000530A000011241FBECFEFD8E0DEBFCDBF22
:1000D00011E0A0E0B1E0E6E8FDE102C005900D927C
:1000E000A237B107D9F721E0A2E7B1E001C01D9224
:1000F000AD3DB207E1F70E9479070C94C10E0C9454
:1001000000000E94FE009C0190FDFBCF88279A71A1
:10011000892B11F4C90108958FEF9FEF08950E9474
:100120001D0190E080E008952F932FB72F938F93B8
:100130009F93EF93FF938091C0002091C600E091C0
:100140007401EF5FEF71909173019E17A9F0982FE2
:100150009C71E0937401F0E0E958FE4F2083809198
:100160007201892B80937201FF91EF919F918F9182
:100170002F912FBF2F91189592E0F1CF8F938FB7CA
:100180008F939F93EF93FF939091760180917501E8
:10019000981799F0E0917501EF5FEF73E0937501A7
:1001A000F0E0E956FE4F80818093C600FF91EF9109
:1001B0009F918F918FBF8F9118958091C1008F7DF6
:1001C0008093C100F3CF9C011092760110927501CB
:1001D000109274011092730197FF03C082E0809324
:1001E000C000832F80788093C5002093C40088E9E5
:1001F0008093C10086E08093C200089590917401BD
:10020000809173019817B1F0909173019F5F9F7176
:10021000E92FF0E0E958FE4F308120917201909370
:10022000730110927201822F90E0982F8827830F1C
:10023000911D089580E091E00895209176012F5F4F
:100240002F73909175019217E1F3E22FF0E0E956D8
:10025000FE4F8083209376018091C100806280935D
:10026000C1000895DC012C912223C1F011969091D8
:1002700076019F5F9F73809175019817E1F3E92FD5
:10028000F0E0E956FE4F2083909376018091C10003
:1002900080628093C1002D912111E9CF0895FC0166
:1002A000019624912223C9F0FC01909176019F5F71
:1002B0009F73809175019817E1F3A92FB0E0A956BB
:1002C000BE4F2C93909376018091C1008062809301
:1002D000C100249131962111E8CF0895CF92DF9289
:1002E000EF92FF920F931F93CF93DF9300D000D034
:1002F00000D00F92CDB7DEB7C22ED02E87018D83EE
:100300006E834F8322E02D1508F469C097012150B8
:1003100031097801F901F695E795F695E79532955B
:1003200022952F7023273F702327AEE3BAE00E9467
:100330004008AF01480F591F4C5F5F4F9F01ABE76B
:10034000B4E10E94400896958795FA01E81BF90BE5
:1003500027E1D29EC001112469E070E00E942C08C0
:100360004C2D4E0D460F572F511D4E0F5F1F9A01FA
:10037000A3E9B4E20E944008BC01CA01861B970BA6
:1003800096958795680F791F769567957695679509
:10039000CB01880F991F880F991F880F991F861B03
:1003A000970B481B590B4983CA82DB82005D0C8383
:1003B000CE0105960E94FD04CE0101960E948205A1
:1003C00027960FB6F894DEBF0FBECDBFDF91CF9159
:1003D0001F910F91FF90EF90DF90CF90089582E0F2
:1003E000E81AF108980196CF2F923F924F925F92B0
:1003F0006F927F928F929F92AF92BF92CF92DF9235
:10040000EF92FF920F931F93CF93DF93CDB7DEB799
:10041000AC970FB6F894DEBF0FBECDBF4C01BE0146
:10042000675E7F4FCE014D960E9462042D8CD401F1
:100430002C92BE8DB8A7F401B1835F8C52824A8C96
:1004400043824B8D44835C8D652E712C30E3631A9F
:1004500038EF730A7682658288E1E4E1F1E0DE013B
:10046000119601900D928A95E1F7930136952795A3
:1004700036952795ABE7B4E10E944008969587959D
:1004800064E6689F9001699F300D11245370352EEA
:100490006216730631F4C30160E971E00E942C0812
:1004A000382E642F6150770BFB01311006C1A12C4F
:1004B000B12CC12CD12CE12CF12C00E010E090E00B
:1004C00080E01E161F066CF56DE070E06C0F7D1F5E
:1004D000860F971FDC018C91A82FB0E020E831E552
:1004E00041E050E00E944F089B01AC0160E070E0E9
:1004F000CB0128A339A34AA35BA36CA37DA38EA33E
:100500009FA360E070E080E090E00E945A085901EB
:100510006A017B018C013394832D90E08E179F0735
:100520009CF2A42DB0E020E831E541E050E00E94CB
:100530004F0868A379A38AA39BA3252D30E0A0E1EF
:10054000BEE00E9440089B01AC0188A199A1AAA12C
:10055000BBA1820F931FA41FB51FAC01BD01420DAB
:10056000511D611D711D1A012B0158A5252F30E069
:10057000ACE3B0E00E944008260E371E481E591E0C
:10058000A201910160E070E080E090E00E945A08D2
:10059000522EA32EB52E8B01F82FE92F35EE6316C0
:1005A00037E0730608F44AC034EEE32E37E0F32E4A
:1005B00054E6452E60E9C62EDD24D39416C08F2F55
:1005C0009E2F20583C4C4E415E4F6F4F7F4F8F4FB8
:1005D0009F4F522EA32EB52E8B01F82FE92F5FEFE0
:1005E000E51AF50AE614F70448F5970136952795BC
:1005F00036952795ABE7B4E10E944008969587951C
:10060000489E9001499E300D11248E2D8370E21674
:10061000F30621F4C701B6010E942C08252D3A2DBE
:100620005B2DB8018111CBCF8F2F9E2F3B574D41B2
:100630005E4F6F4F7F4F8F4F9F4FCBCF252D3A2D62
:100640005B2DB8018F2F9E2F20583047454F514AC0
:100650006F4F7F4F8F4F9F4FD40117962C93179753
:1006600018963C93189719964C9319971A965C9381
:100670001A971B966C931B971C967C931C971D9640
:100680008C931D971E969C93AC960FB6F894DEBF84
:100690000FBECDBFDF91CF911F910F91FF90EF90D3
:1006A000DF90CF90BF90AF909F908F907F906F9092
:1006B0005F904F903F902F9008951E161F06CCF527
:1006C000312CA12CB12CC12CD12CE12CF12C00E02F
:1006D00010E090E080E0A1E0B0E0AC0FBD1F8A0F19
:1006E0009B1FDC018C91A82FB0E020E831E541E0B0
:1006F00050E00E944F089B01AC0160E070E0CB012C
:1007000028A339A34AA35BA36CA37DA38EA39FA3B5
:1007100060E070E080E090E00E945A0859016A01B0
:100720007B018C013394832D90E08E179F079CF200
:10073000F8CEA12CB12CC12CD12CE12CF12C00E055
:1007400010E0EFCE0C94A4030E942F0680ED0E94CF
:1007500033068EE00E94570680E20E94570688E02A
:100760000E9457060C9475071F93CF93DF93EC01FB
:1007700080ED0E94330680E00E9457060E947507B4
:1007800081ED0E9433060E946906282F20771AE027
:10079000219F9001112435952795359527953595FD
:1007A0002795359527958F70820F88830E9469065B
:1007B000282F2077219F9001112435952795359575
:1007C000279535952795359527958F70820F8983C5
:1007D0000E947306282F2077219F900111243595C0
:1007E00027953595279535952795359527958F70BC
:1007F000820F8A83DF91CF911F910C9475071F930D
:10080000CF93DF93EC0180ED0E94330680E00E94DD
:1008100057060E94750781ED0E9433060E94690603
:100820000E9469060E9469060E946906282F2077A7
:100830001AE0219F9001112435952795359527952C
:1008400035952795359527958F70820F88830E945F
:100850006906282F2077219F90011124359527952F
:100860003595279535952795359527958F70820F66
:1008700089830E946906282F2077219F90011124E7
:100880003595279535952795359527953595279550
:100890008F70820F8A830E947306282F2077219FF2
:1008A00090011124359527953595279535952795F0
:1008B000359527958F70820F8B83DF91CF911F9194
:1008C0000C947507EF92FF921F93CF93DF937C01F7
:1008D000EB0180ED0E94330680E00E9457060E94E3
:1008E000750781ED0E9433060E946906282F207744
:1008F0001AE0219F9001112435952795359527956C
:1009000035952795359527958F70820FF701808350
:100910000E946906282F2077219F90011124359588
:1009200027953595279535952795359527958F707A
:10093000820FF70181830E946906282F2077219F6B
:10094000900111243595279535952795359527954F
:10095000359527958F70820FF70182830E94690673
:10096000282F2077219F90011124359527953595C3
:10097000279535952795359527958F70820F888314
:100980000E946906282F2077219F90011124359518
:1009900027953595279535952795359527958F700A
:1009A000820F89830E946906282F2077219F90015A
:1009B00011243595279535952795359527953595A6
:1009C00027958F70820F8A830E947306282F2077C5
:1009D000219F9001112435952795359527953595BB
:1009E0002795359527958F70820F8B83DF91CF9157
:1009F0001F91FF90EF900C947507CF93DF93EC015C
:100A000080ED0E94330680E00E945706688150E026
:100A100040E080E0E7E66E02312D112435953595F2
:100A2000762F770F770B232F271B922F990F990F74
:100A3000290F220F621B262F632F671B022E000C2B
:100A4000330B042E01C0220F0A94EAF7822B4C5F6D
:100A50005F4F40315105F9F60E945706698150E019
:100A600040E080E0E7E66E02312D112435953595A2
:100A7000762F770F770B232F271B922F990F990F24
:100A8000290F220F621B262F632F671B022E000CDB
:100A9000330B042E01C0220F0A94EAF7822B4C5F1D
:100AA0005F4F40315105F9F60E9457066A8150E0C8
:100AB00040E080E0E7E66E02312D11243595359552
:100AC000762F770F770B232F271B922F990F990FD4
:100AD000290F220F621B262F632F671B022E000C8B
:100AE000330B042E01C0220F0A94EAF7822B4C5FCD
:100AF0005F4F40315105F9F60E945706DF91CF91C3
:100B00000C947507CF93DF93EC0180ED0E943306C0
:100B100083E00E945706688150E040E080E0E7E60D
:100B20006E02312D112435953595762F770F770B81
:100B3000232F271B922F990F990F290F220F621B2A
:100B4000262F632F671B022E000C330B042E01C0CF
:100B5000220F0A94EAF7822B4C5F5F4F4031510518
:100B6000F9F60E945706698150E040E080E0E7E630
:100B70006E02312D112435953595762F770F770B31
:100B8000232F271B922F990F990F290F220F621BDA
:100B9000262F632F671B022E000C330B042E01C07F
:100BA000220F0A94EAF7822B4C5F5F4F40315105C8
:100BB000F9F60E9457066A8150E040E080E0E7E6DF
:100BC0006E02312D112435953595762F770F770BE1
:100BD000232F271B922F990F990F290F220F621B8A
:100BE000262F632F671B022E000C330B042E01C02F
:100BF000220F0A94EAF7822B4C5F5F4F4031510578
:100C0000F9F60E9457066B8150E040E080E0E7E68D
:100C10006E02312D112435953595762F770F770B90
:100C2000232F271B922F990F990F290F220F621B39
:100C3000262F632F671B022E000C330B042E01C0DE
:100C4000220F0A94EAF7822B4C5F5F4F4031510527
:100C5000F9F60E945706DF91CF910C94750780E258
:100C60008093B80008951092BC0094EA9093BC0061
:100C70009091BC0097FFFCCF9091B900987F98307D
:100C800091F48093BB0084E88093BC008091BC0009
:100C900087FFFCCF9091B900987F983131F081E0C7
:100CA000903419F0089581E0089580E008958093CC
:100CB000BB0084E88093BC008091BC0087FFFCCF20
:100CC0009091B900987F81E0983209F0089580E012
:100CD000089584EC8093BC008091BC0087FFFCCF1A
:100CE0008091BB00089584E88093BC008091BC0093
:100CF00087FFFCCF8091BB0008950F931F93CF9384
:100D0000DF938B01EA010E94330681111BC02097FB
:100D1000A9F0F801C00FD11F24E891919093BB0076
:100D20002093BC009091BC0097FFFCCF9091B9003C
:100D3000987F983239F4EC17FD0779F794E990938E
:100D4000BC0001C081E0DF91CF911F910F91089508
:100D50000F931F93CF93DF938B01EA0181600E9471
:100D6000330681112CC0BE0161507109A9F0F80150
:100D700098012C0F3D1F2150310944EC4093BC00D9
:100D80009091BC0097FFFCCF9091BB009193E2172C
:100D9000F307A1F7060F171F94E89093BC009091FA
:100DA000BC0097FFFCCF9091BB00F801908394E9C1
:100DB0009093BC00DF91CF911F910F91089581E036
:100DC000DF91CF911F910F910895FF920F931F9381
:100DD000CF93DF93162FF42E052FE9010E943306DF
:100DE000811127C01093BB0094E89093BC009091B0
:100DF000BC0097FFFCCF9091B9002097B1F0EF2D88
:100E0000F02FCE0FDF1F24E891919093BB00209329
:100E1000BC009091BC0097FFFCCF9091B900987FE7
:100E2000983239F4EC17FD0779F794E99093BC00F8
:100E300001C081E0DF91CF911F910F91FF90089544
:100E4000EF92FF920F931F93CF93DF93F82EE62E2E
:100E50008A01E9010E94330681113FC0E092BB0084
:100E600084E88093BC009091BC0097FFFCCF8091F8
:100E7000B9008F2D81600E94330681112EC0BE0102
:100E800061507109A9F0F80198012C0F3D1F215004
:100E9000310944EC4093BC009091BC0097FFFCCF1B
:100EA0009091BB009193E217F307A1F7060F171F6C
:100EB00094E89093BC009091BC0097FFFCCF909178
:100EC000BB00F801908394E99093BC00DF91CF912F
:100ED0001F910F91FF90EF90089581E0DF91CF91E6
:100EE0001F910F91FF90EF90089584E98093BC00CB
:100EF0000895CF93DF93CDB7DEB7AF970FB6F894D1
:100F0000DEBF0FBECDBF80E091E09093DA01809309
:100F1000D9019093D8018093D70183E390E00E9498
:100F2000E300E0910E01F0910F01099583E990E053
:100F30009F938F930E94BC084091D7015091D80194
:100F400069E170E08E010F5F1F4FC8010E947708B2
:100F5000CE018B969F938F9301969F938F930196CB
:100F60009F938F9304979F938F9305969F938F934F
:100F700001969F938F938CE291E09F938F931F93A1
:100F80000F930E94E2088BA51F928F938CA51F924E
:100F90008F938DA51F928F938AA58F9389A58F9389
:100FA0008EA51F928F938FA51F928F9384E790E059
:100FB0009F938F930E94BC080FB6F894DEBF0FBEBC
:100FC000CDBFE9A4FAA4E0911201F09113010EA59E
:100FD0002FA54DA56CA58BA5099508E411E0E0911E
:100FE0001001F0911101CE014A96099588A58F93C1
:100FF0008FA18F938EA18F938DA18F938CA18F93AF
:101000008BA18F938AA18F9389A18F938A8D1F9231
:101010008F938B8D1F928F938C8D1F928F9388A1AE
:101020008F938F8D8F938E8D1F928F938D8D1F92A7
:101030008F931F930F930E94A8089FEF29E688E1E2
:10104000915020408040E1F700C000000FB6F894B6
:10105000DEBF0FBECDBFC3CF97FB072E16F40094A3
:1010600007D077FD09D00E94630807FC05D03EF445
:10107000909581959F4F0895709561957F4F089544
:10108000A29FB001B39FC001A39F700D811D1124C9
:10109000911DB29F700D811D1124911D08950E9414
:1010A0004008A59F900DB49F900DA49F800D911DA9
:1010B000112408952A0D3B1D4C1D5D1D6E1D7F1DC5
:1010C000801F911F0895AA1BBB1B51E107C0AA1FD7
:1010D000BB1FA617B70710F0A61BB70B881F991FD9
:1010E0005A95A9F780959095BC01CD010895B0E07F
:1010F000A0E0EDE7F8E00C94940ED82FC92F6B0117
:101100007A01FA01238120FD07C080E090E0CDB78D
:10111000DEB7E8E00C94B00E16161706B4F7082FE9
:10112000192F81E0C816D10471F0C7010E94A30DE8
:101130008F3F980751F3F80181938F01F1E0CF1AA7
:10114000D1080A9771F7F80110828D2F9C2FDFCFFD
:10115000B0E0A0E0EEEAF8E00C949A0EFE013596BD
:1011600061917191AF018091D9019091DA010E9452
:10117000FB08E2E00C94B60EB0E0A0E0E2ECF8E090
:101180000C94980EFE0137966191719107ED11E074
:10119000D80112968D919C91DC0113962C91139796
:1011A000286013962C93AF010E94FB089C01D80184
:1011B0001296ED91FC919381977F9383C901E4E0AE
:1011C0000C94B40EAEE0B0E0E8EEF8E00C949A0EA9
:1011D00085E08C838B899C899A838983AE01495EE3
:1011E0005F4F6D897E89CE0101960E945A0C2E9622
:1011F000E2E00C94B60EAFE0B0E0E1E0F9E00C9470
:101200008A0E7C013B018A01DC0117961C921E921A
:10121000169713968C9181FFC3C19AE0292EFE0187
:1012200031964F01D70113969C91F30193FD85915F
:1012300093FF81913F01882309F448C1853239F435
:1012400093FD859193FF81913F01853229F4B70188
:1012500090E00E94E10DE6CFB12C412C512CBFE172
:10126000B51538F08B3209F188F4803201F1833200
:1012700021F157FC3AC020ED280F2A3040F556FEE8
:101280001FC0B29C200D1124B22E06C08D3291F0E9
:10129000803379F7689450F8F30193FD859193FFBB
:1012A00081913F018111DBCF20C0689451F868948F
:1012B00052F8F2CF689453F8EFCF689454F8ECCF1B
:1012C000429C200D1124422E689455F8E5CF8E32B1
:1012D00029F456FCFBC0689456F8DECF8C3619F41E
:1012E000689457F8D9CF8836B9F2982F9F7D9554D6
:1012F0009330C0F08336A1F18337C1F1833509F013
:101300005BC0D801CD90DD908D016B2D70E056FC57
:1013100002C06FEF7FEFC6010E948D0D5C016894E3
:1013200057F80AC00C5F1F4FEFE3E983AA24A39488
:10133000B12C6401E89457F853FC04C04A141B0410
:1013400009F018F5342CA114B10431F5332009F457
:1013500069CFB70180E290E00E94E10D3A94F6CFA8
:10136000D8018C9189830E5F1F4FE0CFF801C190A7
:10137000D1908F016B2D70E056FC02C06FEF7FEFB4
:10138000C6010E94980D5C01D5CFB70180E290E0C4
:101390000E94E10D4A94D2CFF60157FC859157FE89
:1013A00081916F01B70190E00E94E10D31103A94F4
:1013B000B1E0AB1AB108C7CF843619F0893609F00D
:1013C00074C0F80157FE6AC0619171918191919149
:1013D0008F01E52DEF76DE2E97FF09C09095809561
:1013E000709561957F4F8F4F9F4F6894D7F82AE093
:1013F00030E0A4010E94290EC82EC818AC2C5D2C28
:10140000D6FE0CC0E89450F8CB1440F4D4FE05C0CE
:10141000D2FC03C05D2D5E7E552EAB2C54FE98C0D1
:10142000FE01EC0DF11D8081803309F08AC0652D2D
:10143000697E562E752D7870372E53FC98C050FE5D
:1014400092C0BC2CA41418F44C0CB42CBA1854FE42
:1014500094C0B70180E390E00E94E10D52FE09C004
:1014600088E790E051FE02C088E590E0B7010E9455
:10147000E10DCB1408F48DC0CA94D12C8FEFC81A9B
:10148000D80AC80CD91CD6018E916D01B70190E025
:101490000E94E10D8C149D04B1F758CF61917191B8
:1014A000072E000C880B990B93CFD52CE894D4F819
:1014B0002AE030E0853739F1F52DF97FDF2E8037CE
:1014C000A9F058F48835A9F08F36D9F0F701868154
:1014D00097812F96E2E10C94A60E8837B9F7D4FED7
:1014E00002C06894D2F820E130E00DC06894D4F8CE
:1014F000F6CF54FE03C02F2F2660D22E20E132E01B
:1015000002C028E030E0F801D7FE15C041915191AA
:10151000619171914C875D876E877F878F01A401F0
:101520006C857D858E859F850E94290EC82EC818E2
:10153000E894D7F863CF81919191AC0170E060E0BD
:10154000E9CF52FC02C0A39475CFA394A39472CFA9
:10155000852D867809F46ECFF6CFB70180E290E052
:101560000E94E10DA394A414C0F3312C70CF342C4D
:101570003A18A41408F46BCFF8CF852D867809F4B7
:1015800078CF8BE251FE80E257FC8DE2B70190E00C
:101590006ECFB70180E390E00E94E10DBA9469CF6D
:1015A0008FEF9FEF96CFFC01CA01DB0120FD08C041
:1015B00023FD05C022FF02C0B383A28391838083F1
:1015C0000895CF92DF92EF92FF92CF93DF9300D0F6
:1015D00000D0CDB7DEB76B017C0183E044FD10C0C5
:1015E00084E046FD0DC0D601F701AA0FBB1FEE1F18
:1015F000FF1F1094D1F7CA0EDB1EEE1EFF1E81E006
:10160000CC0CDD1CEE1CFF1C8150D1F7D701C601AC
:10161000820F911DA11DB11DBC01CD010F900F9036
:101620000F900F90DF91CF91FF90EF90DF90CF90D0
:1016300008950F931F93CF93DF938C01C8010E94ED
:10164000A30DEC0197FD08C00E94790D892BB1F71D
:10165000B801CE010E94110ECE01DF91CF911F91F2
:101660000F910895B0E0A0E0E8E3FBE00C94920E47
:101670008C01C62F5A01F22E0E94A30DFC0199275E
:10168000EB3221F08D9781F46894F7F8C15031F472
:1016900080E0CDB7DEB7EAE00C94AE0EC8010E9440
:1016A000A30DFC0197FDF4CFDF2DDD7F8F2D80731F
:1016B00009F5E033F9F4EE24EA94EC0EC13091F030
:1016C000C8010E94A30DFC0197FD0CC08F7D8835D9
:1016D00069F4D264C25031F0C8010E94A30DFC012C
:1016E00097FF08C0C12CD12C76011CC0F6FE2CC07F
:1016F000D260CE2DC12CD12C760120ED2E0F2830BA
:1017000030F1D4FD09C02A3010F1D6FF05C02F7D7D
:101710008FEE820F8630D0F0B801CF010E94110EFB
:10172000D1FFB6CFD7FF08C0F094E094D094C09416
:10173000C11CD11CE11CF11C2D2FB701A601C50154
:101740000E94D30A81E0A5CFD261D3CF27504D2F7D
:10175000C701B6010E94E10A6B017C01D260C15051
:1017600009F3C8010E94A30DFC0197FFC6CFD8CF93
:10177000A0E2B0E0EEEBFBE00C94900E6C01962E34
:101780007A01CE0101965C0180E2F50111928A9501
:10179000E9F7F6018380890150E040E0B0E020E005
:1017A000A0E061E070E0F80183FC959183FE9191E7
:1017B000892F8F01911107C010E000E0C801A096A9
:1017C000ECE00C94AC0E9E3519F44115510531F145
:1017D000A4171506ECF49D3549F19D32C9F4222376
:1017E00009F1E82FE695E695E695EA0DFB2DF11D4A
:1017F000982F97709B0101C0220F9A95EAF790816C
:10180000292B20838B1781F08B1730F48F5FE9CF62
:101810002111E7CFB92FE5CF8150E3CFA1E04F5F92
:101820005F4FC1CF21E0FBCF20E0F9CF222319F099
:101830008E8180628E83AA2361F0F5019E012F5D67
:101840003F4F8081DF01319680958C93E217F3073B
:10185000C1F788248394C6010E94A30D97FD16C08A
:10186000E82FE695E695E695EA0DFB2DF11D208122
:1018700030E0AC014770552702C0359527954A9551
:10188000E2F720FD06C0B6010E94110E882059F033
:1018900093CFE114F10419F0F70181937F019A9439
:1018A000812C9110D8CFE114F10409F487CFF7010E
:1018B000108284CFA6E0B0E0E0E6FCE00C948E0E4F
:1018C0005C016D837E83742E652EDC0117961C925D
:1018D0001E921697C12CD5011396FC90ED81FE81C6
:1018E000F3FC8591F3FE8191182FFE83ED8388230D
:1018F000F9F090E00E94790D892B21F0C5010E943A
:10190000190BE9CF153251F4ED81FE81F3FC1591ED
:10191000F3FE1191FE83ED83153269F4C5010E9437
:10192000A30D97FDA2C01817B1F2B5010E94110EC8
:101930008C2D90E09EC000E01A3249F4ED81FE81CA
:10194000F3FC1591F3FE1191FE83ED8301E0D12CA0
:1019500020ED210F2A3060F101FF42C0DD2041F36C
:10196000183609F440C01C3609F449C0112301F3AC
:10197000612F70E088E690E00E94820D892BC1F211
:10198000F12CE12C00FD06C0E72DF62DE190F19041
:101990007E2E6F2E1E3609F03CC0D50116964D9155
:1019A0005C9170E060E0202FC7010E94D30A93CFC2
:1019B00002608D2D90E0B0E0A0E089839A83AB8334
:1019C000BC8340E2BC01CD010E94E10AD62EED812C
:1019D000FE81F3FC1591F3FE1191FE83ED83B8CFE8
:1019E000DD24DA94BDCFED81FE81F3FC1591F3FE89
:1019F0001191FE83ED83183609F0B8CF08600460BA
:101A0000ED81FE81F3FC1591F3FE1191FE83ED83D0
:101A1000ADCF1336B1F401FD02C0DD24D394C5016E
:101A20000E94A30D97FD21C0E114F10419F0F70104
:101A300081937F01DA94D110F2CF00FD4CCFC39493
:101A40004ACF1B35D1F42D813E81A7016D2DC501F3
:101A50000E94B80B8D839E83ED81FE81EF2B69F789
:101A6000F5018381807309F463CF8FEF9FEFC1107D
:101A70005FCF2696EEE00C94AA0EC5010E94190BCA
:101A800097FDF3CF1F3699F130F4143641F0193633
:101A900039F0006405C01337A9F01537D1F700629B
:101AA000202FA7016D2DC5010E94320B8111C5CFDA
:101AB000D7CFE114F10419F0F70181927F01DA9494
:101AC000DD2071F0C5010E94A30D4C0197FD08C0F7
:101AD0000E94790D892B69F3B501C4010E94110E92
:101AE000E114F10409F4A9CFD7011C92A6CF00613B
:101AF000D7CF91110C94870E803219F08950855000
:101B0000C8F70895FC010590061621F00020D9F7CA
:101B1000C00108953197CF010895FC0105906150EF
:101B200070400110D8F7809590958E0F9F1F0895F3
:101B3000FC016150704001900110D8F7809590959C
:101B40008E0F9F1F0895CF93DF93EC018B8180FF51
:101B500033C086FF0CC08F7B8B838E819F81019663
:101B60009F838E838A8190E0DF91CF91089582FFD9
:101B700015C0E881F9819081292F092E000C330BC3
:101B800080629923C1F03196F983E8838E819F8129
:101B900001969F838E83C9019927E6CFEA85FB854D
:101BA000CE0109959C0197FFF1CF8B812F3F3F4FCD
:101BB00031F090E2892B8B838FEF9FEFD5CF90E1AF
:101BC000F9CF0F931F93CF93DF93182F092FEB01BA
:101BD0008B8181FD09C01FEF0FEF812F902FDF91C7
:101BE000CF911F910F91089582FF14C02E813F81E4
:101BF0008C819D81281739073CF4E881F981CF0158
:101C000001969983888310838E819F8101969F839B
:101C10008E83E3CFE885F985812F0995892BA1F380
:101C2000DACFFB01238120FF11C026FD0FC08F3FBB
:101C3000980771F082832F7D20642383268137816A
:101C40002150310937832683992708958FEF9FEF1D
:101C50000895FA01AA27283051F1203181F1E89442
:101C60006F936E7F6E5F7F4F8F4F9F4FAF4FB1E08F
:101C70003ED0B4E03CD0670F781F891F9A1FA11D8A
:101C8000680F791F8A1F911DA11D6A0F711D811D8B
:101C9000911DA11D20D009F468943F912AE0269F50
:101CA00011243019305D3193DEF6CF010895462FAF
:101CB0004770405D4193B3E00FD0C9F7F6CF462F90
:101CC0004F70405D4A3318F0495D31FD40524193F9
:101CD00002D0A9F7EACFB4E0A695979587957795B6
:101CE0006795BA95C9F700976105710508959B013D
:101CF000AC010A2E06945795479537952795BA95C6
:101D0000C9F7620F731F841F951FA01D089599279F
:101D1000882708952F923F924F925F926F927F9201
:101D20008F929F92AF92BF92CF92DF92EF92FF92EB
:101D30000F931F93CF93DF93CDB7DEB7CA1BDB0B97
:101D40000FB6F894DEBF0FBECDBF09942A8839883C
:101D500048885F846E847D848C849B84AA84B98443
:101D6000C884DF80EE80FD800C811B81AA81B9814F
:101D7000CE0FD11D0FB6F894DEBF0FBECDBFED0163
:061D80000895F894FFCF66
:101D860000000003000000008F0081000000A20395
:101D9600F4016E011F1C1F1E1F1E1F1F1E1F1E1F6C
:101DA6001F1D1F1E1F1E1F1F1E1F1E1F2568687555
:101DB6002F256868752F257520256868753A25686A
:101DC60068753A25686875000D253032752F2530FF
:101DD60032752F2530347520253032753A2530324C
:101DE600753A2530327520556E69783A20256C751E
:021DF6000000EB
:00000001FF
